:020000040000FA
:06000000A3EF00F0120066
:020006000000F8
:08000800060EF66E000EF76E05
:10001000000EF86E00010900F550656F0900F550FB
:10002000666F03E1656701D03DD00900F550606F50
:100030000900F550616F0900F550626F0900090071
:10004000F550E96E0900F550EA6E09000900090053
:10005000F550636F0900F550646F09000900F6CF91
:1000600067F0F7CF68F0F8CF69F060C0F6FF61C0C5
:10007000F7FF62C0F8FF0001635302E1645307E039
:100080000900F550EE6E6307F8E26407F9D767C020
:10009000F6FF68C0F7FF69C0F8FF00016507000EB2
:0600A000665BBFD71200F1
:0A00A600D9CFE6FFE1CFD9FFFD0E30
:1000B000DBCF02F0FE0EDBCF03F002C0F3FF03C084
:1000C000F4FFE552E7CFD9FF1200C28012007F0E85
:1000D000956E6BEF00F092687E807F98C16A380E53
:1000E000C06E010EC26E1200D9CFE6FFE1CFD9FF7C
:1000F000020EE126DE6ADD6AEADFDECFE6FFDDCF53
:10010000E6FFD1DFE552E552E0DFD9CFE9FFDACFF4
:10011000EAFF000ED880EE54000EED5402E28C8E01
:06012000ECD78C9EEAD72B
:0A012600000EF36E00EE00F0060E6E
:1001300001D81200EA6002D0EE6AFCD7F350E96001
:060140001200EE6AFCD77C
:0A01460015EE00F025EE00F0F86A57
:10015000019C04EC00F0B1EC00F074EC00F0FBD773
:0201600012008B
:02016200120089
:020000040030CA
:0100010008F6
:010003001EDE
:010006008178
:00000001FF
